:020000040800F2
:1000000000001024C1210008891F00088B1F000870
:100010008D1F00088F1F0008911F000800000000BE
:10002000000000000000000000000000931F000816
:10003000951F000800000000971F0008991F000886
:1000400011220008112200081122000811220008C4
:1000500011220008112200081122000811220008B4
:1000600011220008112200081122000811220008A4
:100070001122000811220008112200081122000894
:100080001122000811220008112200081122000884
:100090001122000811220008112200081122000874
:1000A0001122000811220008112200081122000864
:1000B0001122000811220008112200081122000854
:1000C0001122000811220008112200081122000844
:1000D00011220008A11F00081122000811220008A7
:1000E0001122000811220008112200081122000824
:1000F0001122000811220008112200081122000814
:100100001122000811220008112200081122000803
:1001100011220008112200081122000811220008F3
:1001200011220008112200081122000811220008E3
:100130001122000800000000000000001122000849
:1001400011220008112200081122000811220008C3
:1001500011220008112200081122000811220008B3
:1001600011220008112200081122000811220008A3
:100170001122000811220008112200081122000893
:100180001122000811220008112200081122000883
:100190001122000811220008112200081122000873
:1001A0001122000811220008112200081122000863
:1001B0001122000811220008112200081122000853
:1001C00011220008112200080000000000000000B9
:1001D00000000000000000001122000800000000E4
:1001E000000000000000000000000000000000000F
:1001F0000000000000000000112200081122000889
:10020000112200081122000800000000112200083D
:1002100011220008112200081122000811220008F2
:10022000112200081122000811220008000000001D
:10023000112200081122000800000000112200080D
:1002400011220008112200081122000811220008C2
:1002500011220008112200081122000811220008B2
:1002600011220008112200081122000811220008A2
:1002700011220008112200081122000800000000CD
:1002800011220008112200080000000011220008BD
:1002900000000000112200081122000811220008AD
:0C02A000112200081122000811220008A1
:1002C00010B5054C237833B9044B13B10448AFF390
:1002D00000800123237010BD54080024000000009A
:1002E000887F000808B5034B1BB103490348AFF3EF
:1002F000008008BD0000000058080024887F000826
:1003000080F0004002E000BF81F0004142001FBFCA
:100310005FEA410392EA030F7FEA226C7FEA236CD3
:100320006AD04FEA1262D2EB1363C1BFD2184140C8
:1003300048404140B8BF5B42192B88BF704710F05E
:10034000004F40F4000020F07F4018BF404211F001
:10035000004F41F4000121F07F4118BF494292EA69
:10036000030F3FD0A2F1010241FA03FC10EB0C0095
:10037000C3F1200301FA03F100F0004302D5494222
:1003800060EB4000B0F5000F13D3B0F1807F06D3CF
:1003900040084FEA310102F10102FE2A51D2B1F1C7
:1003A000004F40EBC25008BF20F0010040EA0300BC
:1003B0007047490040EB0000013A28BFB0F5000F3C
:1003C000EDD2B0FA80FCACF1080CB2EB0C0200FAF2
:1003D0000CF0AABF00EBC25052421843BCBFD04041
:1003E0001843704792F0000F81F4000106BF80F4BB
:1003F00000000132013BB5E74FEA41037FEA226C7E
:1004000018BF7FEA236C21D092EA030F04D092F048
:10041000000F08BF0846704790EA010F1CBF00207C
:10042000704712F07F4F04D1400028BF40F00040D9
:10043000704712F100723CBF00F50000704700F0F9
:10044000004343F0FE4040F4000070477FEA226220
:1004500016BF08467FEA23630146420206BF5FEAF1
:10046000412390EA010F40F4800070474FF00003F1
:1004700004E000BF10F0004348BF40425FEA000CB8
:1004800008BF704743F0964301464FF000001CE060
:1004900050EA010208BF70474FF000030AE000BFB6
:1004A00050EA010208BF704711F0004302D54042F4
:1004B00061EB41015FEA010C02BF84460146002066
:1004C00043F0B64308BFA3F18053A3F50003BCFA81
:1004D0008CF2083AA3EBC25310DB01FA02FC63442E
:1004E00000FA02FCC2F12002BCF1004F20FA02F235
:1004F00043EB020008BF20F00100704702F1200228
:1005000001FA02FCC2F1200250EA4C0021FA02F288
:1005100043EB020008BF20EADC7070474FF0FF0C8D
:100520001CEAD0521EBF1CEAD15392EA0C0F93EA88
:100530000C0F6FD01A4480EA010C400218BF5FEA2A
:1005400041211ED04FF0006343EA501043EA51119D
:10055000A0FB01310CF00040B1F5000F3EBF490097
:1005600041EAD3715B0040EA010062F17F02FD2A9B
:100570001DD8B3F1004F40EBC25008BF20F001007E
:10058000704790F0000F0CF0004C08BF49024CEA95
:10059000502040EA51207F3AC2BFD2F1FF0340EA27
:1005A000C250704740F400004FF00003013A5DDC98
:1005B00012F1190FDCBF00F000407047C2F10002D9
:1005C000410021FA02F1C2F1200200FA02FC5FEAC6
:1005D000310040F1000053EA4C0308BF20EADC7010
:1005E000704792F0000F00F0004C02BF400010F482
:1005F000000F013AF9D040EA0C0093F0000F01F02F
:10060000004C02BF490011F4000F013BF9D041EA50
:100610000C018FE70CEAD15392EA0C0F18BF93EA52
:100620000C0F0AD030F0004C18BF31F0004CD8D17C
:1006300080EA010000F00040704790F0000F17BF03
:1006400090F0004F084691F0000F91F0004F14D049
:1006500092EA0C0F01D142020FD193EA0C0F03D1A1
:100660004B0218BF084608D180EA010000F00040A4
:1006700040F0FE4040F40000704740F0FE4040F47F
:10068000400070474FF0FF0C1CEAD0521EBF1CEA1E
:10069000D15392EA0C0F93EA0C0F69D0A2EB03023C
:1006A00080EA010C49024FEA402037D04FF08053D6
:1006B00043EA111143EA10130CF000408B4238BF9B
:1006C0005B0042F17D024FF4000C8B4224BF5B1AA9
:1006D00040EA0C00B3EB510F24BFA3EB510340EAF7
:1006E0005C00B3EB910F24BFA3EB910340EA9C00A5
:1006F000B3EBD10F24BFA3EBD10340EADC001B0115
:1007000018BF5FEA1C1CE0D1FD2A3FF650AF8B42B8
:1007100040EBC25008BF20F0010070470CF0004CC5
:100720004CEA50207F32C2BFD2F1FF0340EAC250F0
:10073000704740F400004FF00003013A37E792F0B1
:10074000000F00F0004C02BF400010F4000F013A0F
:10075000F9D040EA0C0093F0000F01F0004C02BF0A
:10076000490011F4000F013BF9D041EA0C0195E773
:100770000CEAD15392EA0C0F08D142027FF47DAF0C
:1007800093EA0C0F7FF470AF084676E793EA0C0FFC
:1007900004D14B023FF44CAF08466EE730F0004CFA
:1007A00018BF31F0004CCAD130F000427FF45CAF8A
:1007B00031F000437FF43CAF5FE700BF42000ED250
:1007C000B2F1FE4F0BD34FF09E03B3EB126209D48C
:1007D0004FEA002343F0004323FA02F070474FF042
:1007E0000000704712F1610F01D1420202D14FF0B7
:1007F000FF3070474FF00000704700BF53B94AB94F
:10080000002908BF00281CBF4FF0FF314FF0FF3018
:1008100001F0DEB8ADF1080C6DE904CE00F006F889
:10082000DDF804E0DDE9022304B070472DE9F0476C
:10083000089E0D4604468846002B4DD18A429446B8
:1008400068D9B2FA82F252B101FA02F3C2F1200180
:1008500020FA01F10CFA02FC41EA030894404FEA45
:100860001C45210CB8FBF5FE1FFA8CF705FB1E8317
:1008700041EA03430EFB07F199420BD91CEB03033A
:100880000EF1FF3080F01E81994240F21B81AEF1E3
:10089000020E63445B1AA4B2B3FBF5F005FB103300
:1008A00044EA034400FB07F7A7420AD91CEB0404FF
:1008B00000F1FF3380F00881A74240F205816444D3
:1008C0000238E41B40EA0E4000211EB1D440002350
:1008D000C6E90043BDE8F0878B4208D9002E00F03E
:1008E000EE800021C6E900050846BDE8F087B3FAAE
:1008F00083F100294AD1AB4202D3824200F2F9804F
:10090000841A65EB030301209846002EE2D0C6E965
:100910000048DFE702B9FFDEB2FA82F2002A40F0B7
:100920009180A1EB0C054FEA1C471FFA8CFE0121B8
:10093000B5FBF7F307FB1350250C45EA00450EFB0A
:1009400003F0A84208D91CEB050503F1FF3802D2D9
:10095000A84200F2CB8043462D1AA4B2B5FBF7F0B3
:1009600007FB105544EA05440EFB00FEA64508D9D6
:100970001CEB040400F1FF3502D2A64500F2BB8057
:100980002846A4EB0E0440EA03409EE7C1F120078D
:100990008B4022FA07FC4CEA030C20FA07F405FA14
:1009A00001F31C43FD404FEA1C4900FA01F3B5FB7B
:1009B000F9F8200C1FFA8CFE09FB185540EA054592
:1009C00008FB0EF0A84202FA01F20BD91CEB050558
:1009D00008F1FF3A80F08880A84240F28580A8F1B3
:1009E000020865442D1AA4B2B5FBF9F009FB1055B5
:1009F00044EA054500FB0EFEAE4508D91CEB050593
:100A000000F1FF346CD2AE456AD90238654440EA41
:100A10000840A0FB0294A5EB0E05A542C846A646D9
:100A200056D353D05EB1B3EB080265EB0E0505FA61
:100A300007F722FA01F3CD401F43C6E900750021F4
:100A4000BDE8F087C2F1200320FA03F10CFA02FCA2
:100A500025FA03F395400D434FEA1C471FFA8CFE1D
:100A6000B3FBF7F107FB11302B0C43EA004301FB0A
:100A70000EF0984204FA02F408D91CEB030301F1CA
:100A8000FF382FD298422DD9023963441B1AADB2D8
:100A9000B3FBF7F007FB103345EA034500FB0EF309
:100AA000AB4208D91CEB050500F1FF3816D2AB426A
:100AB00014D902386544ED1A40EA014138E731465D
:100AC000304607E78646E5E61846FAE64B45A9D2E2
:100AD000B9EB020864EB0C0E0138A3E74046EAE7E5
:100AE000204694E74146D1E7D0467BE7023B654488
:100AF00032E7084609E76444023842E703685A00CF
:100B00004CBF43F0004323F000431844704700BF3C
:100B10002DE9F84329B34F1E044615463E464FF0D3
:100B2000000808EB060101EBD171491004EBC10983
:100B30004846FFF7E3FF0346C80008308F422044D1
:100B400009D0AB4209D8FFF7D9FF0138A8420AD231
:100B500001F10108E5E7AB4205D9884501D04E1EF9
:100B6000DFE74FF000094846BDE8F883012807D0C9
:100B7000022807D0044B00280CBF184600207047FD
:100B800002487047024870474512000849120008A1
:100B90004D12000830B5234B83B004468D1E3BB385
:100BA00001A92846AFF30080E8B101992A46FFF772
:100BB000AFFF0146B8B1FFF7A1FF4B68A064012B5E
:100BC0002CD0002B01F1040024DBFFF797FF00235A
:100BD000C4E913030368002B11DBFFF78FFF2061CB
:100BE000002003B030BD00230920236103B030BDD5
:100BF0000D4B0E49C91AC91018460191D6E7C3F327
:100C00000360FFF7B3FF0028206114BF0020092014
:100C100003B030BD0123C4E91303DBE700232361E4
:100C20000520DEE7000000008882000850830008ED
:100C30000368DA0710B5044606D49B0700F14800A4
:100C400009D500F05BFC2368590709D51A070ED5B2
:100C5000DB0613D510BD00F049FC23685907F5D415
:100C600004F1D00000F052FC23681A07F0D404F518
:100C7000A87000F053FC2368DB06EBD404F5E870A1
:100C8000BDE8104000F08EBC0920704703460068A4
:100C900000B11844704700BF704700BF70B50446EC
:100CA0000E46316C2046FFF775FF054688B9326C59
:100CB0006261236932462146012098470828F0D016
:100CC000072806D12846316CFFF7E6FF301D00F0FB
:100CD00001FC06F057F800BF2DE9F0470D1DD0F8D4
:100CE0000C80D0F81890074614460FCDADF5727DF4
:100CF0000DF10C0CACE80F000FCDACE80F000FCDE0
:100D0000ACE80F0095E80F0002AE4FF0000E8CE843
:100D10000F00C6F800E020E0336C7B614FF4F07206
:100D200031467AA800F056FE3B697AAA3946504609
:100D30009847889B73642146CDE9006905463B4688
:100D40003A460120C0470446E0B94FF4F0727AA950
:100D5000304600F03FFE082D1AD1316C3846FFF7BF
:100D600019FF09345FFA84FA05460028D4D0B36B22
:100D700073643A46CDE900693B464AF01001012010
:100D8000C04700B1092528460DF5727DBDE8F08702
:100D9000072DF7D12046316CFFF77EFF03A800F046
:100DA00099FB00BF406C7047F0B5CB6B0B6401F151
:100DB000040C0E460546BCE80F00F9B001AC0FC4A8
:100DC000BCE80F000FC4BCE80F000FC49CE80F0084
:100DD0004FF0FF3784E80F00009706E02B696A4662
:100DE000294698470828044608D110992846FFF755
:100DF000D1FE0028F2D0092079B0F0BD6846FFF797
:100E000017FF062CF7D131462846FFF747FF00BFF2
:100E1000C160D96B82611964002219465CE700BF8A
:100E200070B5C66843690B64AEB903690A460446E7
:100E30000D46014602209847072805D008280FD103
:100E400029462046FFF72AFF3046296CFFF724FF8A
:100E5000281D00F03FFB0122FFF73EFF05F092FF47
:100E600005F090FFC2681AB1CA6B0A64002233E72A
:100E70009AE700BF704700BF836801460BB10120AD
:100E800018477047012912D009D873B90F2A0CD816
:100E900000EB820218465368009A136070470339CA
:100EA000012994BF012002207047022070470846A4
:100EB000704700BF00B585B00A46002303A9009122
:100EC0001946FFF7DFFF039805B05DF804FB00BF8C
:100ED000012912D009D873B90F2A0CD800EB82006F
:100EE000009A12684260184670470339012994BF7E
:100EF000012002207047022070470846704700BF5B
:100F000010B584B0002303AC039200940A4619463E
:100F1000FFF7DEFF04B010BD70B5D36B136402F1B0
:100F2000040C05460C46BCE80F00ADF50E7D0DF136
:100F30005C0EAEE80F00BCE80F00AEE80F00BCE8A6
:100F40000F00AEE80F009CE80F004FF0FF368EE870
:100F50000F00169610E0FFF7D3FF214616A8A8470A
:100F6000034616AA6946082083B9049B98470528BA
:100F700006460CD0092809D026996846FFF70AFED4
:100F800003466A460C2116A8002BE4D0092616A8B1
:100F9000FFF74EFE30460DF50E7D70BD2DE9F04F8A
:100FA000CC6C89B01E4654F8043B06940D46174697
:100FB00000F00308002E79D01A0C1B0405938DF85D
:100FC0001D200223D2B204EB82048DF81C302B6D5D
:100FD000B8F1020F08BFAC6B13F001030CD005A9E8
:100FE000384600F079FB18B9082009B0BDE8F08F49
:100FF000092009B0BDE8F08FD4F800A0BAF1000FC5
:10100000EDD0019300F008030293022E4AD0B4F809
:1010100000A0B4F802900434AB6C29F0010B0F214E
:1010200038469B44FFF746FF834539D82AF0010331
:101030009B44834594BF002001204FEA490303F0FD
:1010400002030AF0010A43EA0A03012B49D0022BEA
:1010500032D0002BCCD1B8F1000F02D0002840F0E4
:10106000CD800434D4F800A0BAF1000FCDD105A989
:10107000384600F031FB0028BAD1019B002BB3D0D9
:101080000F213846FFF716FF0E2102463846FFF7BC
:1010900037FF38466A4A0F21FFF732FF0720A8E7DB
:1010A0000020CAE7D4F804900834B5E71B02059382
:1010B0000323ADF81C308AE7236823F0004BB8F116
:1010C000000F45D128B1029A002A5CD0BBF1000F75
:1010D00074D0002B00DA04340BF1010B04EB8B0409
:1010E000C0E7B8F1000F19D1B0B163682268991C4C
:1010F0004FEAD2723FF47CAF05F1580101330491FD
:1011000000F09080201DFFF7C1FD04AB014628468A
:10111000AFF3008000285BD10834A3E70D213846E7
:10112000D5F82090FFF7C6FE8145F5D1AB6A9C4209
:10113000F2D12046FFF7E2FC0F2102463846FFF7C6
:10114000DFFE38462A460021FFF7DAFE072050E787
:101150000D213846D5F82090FFF7ACFE814501D02F
:101160002368B6E7AB6A9C42FAD104230022C5E9A2
:101170000B23E318C5F828B06B632368002B59DBF9
:1011800001230193A8E705F15803CDF80C8004F181
:10119000040AB04691461E460EE050460496FFF7FC
:1011A00075FD0022014604AB284609F101090AF148
:1011B000040AAFF30080E0B9D945EED10D213846DD
:1011C000FFF778FE049BAC62C5E90803062010E730
:1011D00081460D213846FFF76DFEB9F1020F2862F6
:1011E00025D12B46049A43F82C2F6B62AC62062063
:1011F000FFE646462368DDF80C806AE72046FFF7E5
:101200007DFC04340246AC6328461446AFF30080EC
:1012100000283FF4EDAE384622460F21FFF770FE5E
:101220000720E6E60D213846FFF744FE2862049BBE
:101230006B62DBE70BF1010004EB80007AE700BF93
:10124000000000000023A9E60123A7E60223A5E68B
:101250002DE9F0430646C3B015461C46042900F2AA
:10126000BF80DFE801F09E57BD2D0300002C40F049
:10127000B780102A00F2B4800368D80600F1F98024
:1012800020AF384600F098F9B46B394600234FF090
:10129000010C0CFA03F22A42204603F1010303D0A9
:1012A00050F8042B0A600446042B01F10401F0D12C
:1012B0003846B46300F076F9002043B0BDE8F0830F
:1012C000032C40F08D8094B204EB1243102B4FEAB4
:1012D000124500F2858003681F0700F1D28020AF1D
:1012E000384600F03DF9B26B07EBC50154B10B462F
:1012F000D01A01EBC401E4001D5843F8045B8B4293
:10130000FAD122443846B26300F008F9002043B015
:10131000BDE8F083012C4FEA124895B25CD0052C51
:101320005ED108EB0509B9F1200F59D8B8F10F0FBC
:1013300079D9A946002D40F08A80B36B6DB320AFF8
:101340004FF0000907EBC807043F03EBC50553F84E
:10135000041B47F8041FAB42F9D1B9F1000F0FD0BD
:101360006F464146102938BF102107EBC10184396F
:1013700003EBC90553F8040B41F8040FAB42F9D154
:10138000012C00F08680B8F10F0FB56347D9B9F191
:10139000000F02D0684600F0B9F8002043B0BDE865
:1013A000F083ECB9806B23461FFA82FC0124371DC1
:1013B00004FA03F212EA0C0F014604D051F8042B90
:1013C00047F8232008460133102BF1D115F40055BE
:1013D000E3D1B063284604E008EB0503102B03D9E2
:1013E000022043B0BDE8F083B8F10F0FF8D833689E
:1013F000DA0706D5304623F0030340F8483B00F0F7
:1014000079F820AF384600F075F8B36B002D97D10E
:101410001D460435B563384600F068F8BDE720A8DE
:1014200000F06CF8B3E7B9F1100F40D9A9F1100939
:101430003368D90708D523F00103304643F002038F
:1014400040F8483B00F05EF8B9F1000F32D0336845
:101450005A0720D4B8F10F0F25D96F463846C8F186
:10146000100500F057F8002DB36B7FF77AAF20AF6F
:1014700068E723F01003336006F5E87000F09CF88D
:10148000FEE623F00803036000F5A87000F068F89A
:1014900025E720AFBDE7304623F0040340F8D03BFA
:1014A00000F038F8D6E720A800F02CF8D5E74FF088
:1014B0000009BDE7B8F10F0F3FF63FAF20AF384648
:1014C00000F020F8B36B002D7FF43AAF384600F0FF
:1014D00015F862E700F1340191E838009C46A64611
:1014E0004CF8045D90E8FF0FE54600BD90EC210B41
:1014F000704700BF80EC210B704700BF90EC200BC1
:10150000704700BF80EC200B704700BFD0EC200B71
:10151000704700BFC0EC200B704700BFF0EC020129
:10152000F0EC0211F0EC0221F0EC0231F0EC02419F
:10153000F0EC0251F0EC0261F0EC0271F0EC02818F
:10154000F0EC0291F0EC02A1F0EC02B1F0EC02C17F
:10155000F0EC02D1F0EC02E1F0EC02F1704700BFD8
:10156000E0EC0201E0EC0211E0EC0221E0EC0231DF
:10157000E0EC0241E0EC0251E0EC0261E0EC0271CF
:10158000E0EC0281E0EC0291E0EC02A1E0EC02B1BF
:10159000E0EC02C1E0EC02D1E0EC02E1E0EC02F1AF
:1015A000704700BFB0FC0181B0FC0191B0FC01A10B
:1015B000B0FC01B1704700BFA0FC0181A0FC01910B
:1015C000A0FC01A1A0FC01B1704700BFEC4600B532
:1015D0002DE900502DE9FF1F4FF000032DE90C000D
:1015E00001A9FFF7E1FBDDF840E012B0704700BF52
:1015F000EC4600B52DE900502DE9FF1F4FF0000328
:101600002DE90C0001A9FFF70BFCDDF840E012B05A
:10161000704700BFEC4600B52DE900502DE9FF1FD3
:101620004FF000032DE90C0001A9FFF71BFCDDF8CA
:1016300040E012B0704700BFEC4600B52DE9005005
:101640002DE9FF1F4FF000032DE90C0001ABFFF760
:10165000DFFBDDF840E012B0704700BFEC4600B59C
:101660002DE900502DE9FF1F4FF000032DE90C007C
:1016700001AAFFF751FCDDF840E012B0704700BF4F
:10168000027A03467AB9427AA2B14168013A10B4AB
:101690004272086803220C1D1A7202025C60000E7E
:1016A00010BC1A6070470068013A1A7202021A6090
:1016B000000E7047B020704700B585B0002303AA24
:1016C000009219460C22FFF7DDFB039805B05DF888
:1016D00004FB00BFF0E700BF2DE9F043054685B0ED
:1016E0000E464FF000083046FFF7CAFFB028044608
:1016F00000F0BA80070620D500F0F003802B4DD013
:10170000902B36D0A02B60D0B02B74D0C02B00F023
:101710008B8000F0F803D02B0BD100F007020132D0
:10172000052342F4002201212846FFF791FD0028FD
:10173000D9D0092005B0BDE8F0838300DBB21F1DBE
:101740000DF10C0900231946CDF800900D22284612
:10175000FFF798FB039BCDF8009060064CBFDF1BA2
:10176000FF1800230D22194628460397FFF7B0FB08
:10177000B9E700F00D030D2BDBD003AF002300F021
:101780000F02194600972846FFF77CFB00230097BD
:101790000D2219462846FFF79BFBA4E73046FFF7CA
:1017A0006FFF24022043B0F5004FC2D00401002394
:1017B000A2B219462846FFF74BFD0028B9D114F410
:1017C000004F18BF4FF001088DE7C24302F0070336
:1017D0004FF47F621A41010702F47F624FF0000369
:1017E00048BF42F4804219462846FFF731FD0028E1
:1017F0003FF479AF9DE7B1283BD0B22800F0938049
:10180000B32841D000F0FC03B42B92D000F00702C3
:101810000132012342F4002219462846FFF718FD41
:1018200000283FF460AF84E7C6284AD0C72854D0C8
:1018300000F0F803C02B63D0C82868D0C9287FF413
:1018400078AF3046FFF71CFF020300F00F0002F4F0
:10185000702201300243012105232846FFF7F8FCDE
:1018600000283FF440AF64E7B8F1000F18D0002023
:1018700060E73046FFF704FF024600283FF459AF07
:1018800010F0F003C8D054E73046FFF7F9FE02032A
:1018900000F00F03013302F470221A430123BBE767
:1018A00003AC43460E22414600942846FFF7EAFA6D
:1018B000009443460F2241462846FFF709FB404665
:1018C00038E73046FFF7DCFE020300F00F03013378
:1018D00002F470221A4303239EE73046FFF7D0FE3E
:1018E000024600283FF425AF10F0F0037FF421AF4B
:1018F00004212846FFF7ACFC00283FF4F4AE18E7BB
:1019000000F00F020132032342F4202284E7304624
:10191000FFF7B6FE00F0F00200F00F0310320133C3
:1019200043EA023297E700230DF10C090D22194614
:10193000CDF800902846FFF7A5FA3046FFF7A0FE45
:1019400002064FF002040CD5039B00F07F00A0407C
:10195000184403903046FFF793FE030604F1070492
:10196000F2D4039BCDF8009000F07F02A24003F573
:1019700001731A440023039219460D222846FFF7EB
:10198000A7FAB0E610B5C26C536884B04FF0030CF0
:1019900008321C0208461B0E01A9019402928DF820
:1019A0000CC08DF80D30FFF797FE04B010BD00BFDE
:1019B00008B5FFF78FFE806C08BD00BF08B5FFF7C4
:1019C00089FEC06CC379023300EB830008BD00BF01
:1019D000704700BF844641EA000313F003036DD152
:1019E000403A41D351F8043B40F8043B51F8043BE2
:1019F00040F8043B51F8043B40F8043B51F8043BE9
:101A000040F8043B51F8043B40F8043B51F8043BD8
:101A100040F8043B51F8043B40F8043B51F8043BC8
:101A200040F8043B51F8043B40F8043B51F8043BB8
:101A300040F8043B51F8043B40F8043B51F8043BA8
:101A400040F8043B51F8043B40F8043B51F8043B98
:101A500040F8043B51F8043B40F8043B51F8043B88
:101A600040F8043B403ABDD2303211D351F8043B28
:101A700040F8043B51F8043B40F8043B51F8043B68
:101A800040F8043B51F8043B40F8043B103AEDD2D7
:101A90000C3205D351F8043B40F8043B043AF9D228
:101AA000043208D0D2071CBF11F8013B00F8013BFB
:101AB00001D30B8803806046704700BF082A13D308
:101AC0008B078DD010F003038AD0C3F10403D21A20
:101AD000DB071CBF11F8013B00F8013B80D331F854
:101AE000023B20F8023B7BE7043AD9D3013A11F8D4
:101AF000013B00F8013BF9D20B7803704B7843703F
:101B00008B78837060467047000000000000000082
:101B100000000000000000000000000000000000C5
:101B2000A2EB0300704700BF02780B78012A28BFA0
:101B30009A42F5D16DE9044540EA0104CDE9026716
:101B40006FF0000C4FEA447212B380EA010414F003
:101B5000070F6AD100F0070420F0070004F0030526
:101B600021F007014FEAC505F0E8042314F0040F43
:101B7000F1E804670CFA05F462EA040266EA040676
:101B80000AD063EA0403624667EA0407664603E094
:101B9000F0E80423F1E8046782FA4CF582EA0604CF
:101BA000A4FA8CF46CBB83FA4CF583EA0705A5FA1A
:101BB0008CF595B950E9022351E9026782FA4CF598
:101BC00082EA0604A4FA8CF483FA4CF583EA07054A
:101BD000A5FA8CF52543DBD09CB92DBAB5FA85F46E
:101BE00024F0070427FA04F1DDE9026723FA04F37D
:101BF00003F0FF0001F0FF01FDE80445A0EB010048
:101C0000704724BAB4FA84F424F0070426FA04F1E5
:101C1000DDE9026722FA04F202F0FF0001F0FF01A1
:101C2000FDE80445A0EB0100704714F0030F3CD120
:101C300010F0030428D150F8082B51F8083B82FA21
:101C40004CF582EA0305A5FA8CF55DB950F8042C31
:101C500051F8043C82FA4CF582EA0305A5FA8CF5AA
:101C6000002DE8D02DBAB5FA85F424F0070423FA44
:101C700004F122FA04F202F0FF0001F0FF01FDE896
:101C80000445A0EB010070474FEAC40420F00300B4
:101C900050F8082B21F0030151F8083B0CFA04F42A
:101CA00062EA040263EA0403C9E710F003041AD0ED
:101CB000A1EB040120F00300E40750F8042B06D048
:101CC0000FD28B785FFAA2F4E41A06D12BB1CB784D
:101CD0005FFAB2F4E41A00D11BB920465DF8104B4C
:101CE000704701F1040150F8042BCC0721F00301E7
:101CF00051F8043B48D824D222F07F4482FA4CF5B4
:101D000094EA1325A5FA8CF50AD165B951F8043B7C
:101D100084EA0204B4EB036F0ED150F8042BEBE716
:101D20004FEA132355E035F07F454DD10878FDE8A3
:101D30000445C0F1000070474FEA126203F0FF0350
:101D400047E002EA1C4482FA4CF594EA1345A5FAEE
:101D50008CF50AD165B951F8043B84EA0204B4EB6E
:101D6000034F0CD150F8042BEBE74FEA134330E05C
:101D700015EA1C4528D10B884FEA124229E04FEAA8
:101D8000124203EA1C4324E002F0FF0482FA4CF5FD
:101D900094EA1365A5FA8CF50AD165B951F8043BAC
:101DA00084EA0204B4EB032F09D150F8042BEBE7CB
:101DB0004FEA13630DE015F0FF0F05D10B684FEAF2
:101DC000122223F07F4304E04FF00000FDE80445B9
:101DD000704712BA1BBA82FA4CF482EA0304A4FADE
:101DE0008CF5B5FA85F402FA04F203FA04F34FEA2B
:101DF0001260FDE80445A0EB1360704730B589B070
:101E00000024039404940594069407941B4BD3F880
:101E1000402142F08002C3F84021D3F8402102F073
:101E200080020092009AD3F8402142F00402C3F8E5
:101E30004021D3F8402102F004020192019AD3F824
:101E4000402142F00102C3F84021D3F8403103F0B1
:101E500001030293029B0A4D22460221284600F00C
:101E6000ABFE02230393012304930593069403A975
:101E7000284600F08DFD09B030BD00BF0044025877
:101E80000008025872B6FEE700B59DB04C22002152
:101E900009A804F0A9FF2022002101A804F0A4FF52
:101EA000254B4FF0FF32C3F8B020022000F08AFE2D
:101EB00000230093214B9A6942F440429A619B6946
:101EC00003F440430093009B1C4B9B6913F4005F99
:101ED000FAD00223099301220C9240220D92129310
:101EE0000022139204211491232115911693179324
:101EF00018930C2319931A921B9209A800F08CFED8
:101F0000A8B93F230193032302930023039304936F
:101F10004023059306934FF48062079208930621AD
:101F200001A801F0B7FA20B91DB05DF804FBFFF776
:101F3000A9FFFFF7A7FF00BF00440258004802585E
:101F400008B500F08FF9FFF79FFFFFF757FF00F08C
:101F5000AFF804F0E1FEFEE700B583B0094BD3F81B
:101F6000542142F00202C3F85421D3F8543103F053
:101F700002030193019B052000F0C8F903B05DF84E
:101F800004FB00BF00440258FEE7FEE7FEE7FEE761
:101F9000FEE770477047704708B500F091F908BD3B
:101FA00008B5024802F0BAFC08BD00BF740800245E
:101FB0000120704708B504F0EDFE162303604FF0D2
:101FC000FF3008BD08B54FF0FF31FFF7F3FFFEE724
:101FD00010B503460C4A0D490D48006840B10C4845
:101FE00000680344521A934206D8094A136010BD90
:101FF0000748084C0460F2E704F0CCFE0C230360B1
:102000004FF0FF30F3E700BF000010240004000091
:1020100070080024E80A00241E4B1B6803F00F031D
:10202000022B06D81B4A136823F00F0343F0030367
:102030001360194B1A6842F001021A6000221A61FB
:102040001968164A0A401A60124B1B6813F00C0FED
:1020500006D0104A136823F00F0343F00303136004
:102060000D4B00229A61DA611A620D4999620D499D
:10207000D9620D4919635A639963DA6319645A6422
:10208000196821F4802119601A66084B43F2D202C4
:102090001A60704700200052004402587FEDF6EAB3
:1020A000000202020000FF01800201010040005214
:1020B00008B51748174B03604FF4E1334360002322
:1020C0008360C36003610C2242618361C361036268
:1020D0004362836203F00AFE70B900210C4803F0EA
:1020E00045FF60B900210A4803F065FF50B9084870
:1020F00003F01DFF48B908BDFFF7C4FEEDE7FFF789
:10210000C1FEEFE7FFF7BEFEF1E7FFF7BBFEF2E728
:10211000740800240010014010B5B8B00446002136
:1021200033913491359136913791C02202A804F051
:102130005BFE22681F4B9A4201D038B010BD0122CD
:102140000023CDE9022302A801F040FC78BB1A4B22
:10215000D3F8502142F01002C3F85021D3F8502197
:1021600002F010020092009AD3F8402142F00102DE
:10217000C3F84021D3F8403103F001030193019BE0
:102180004FF4C06333930223349300243594369480
:102190000723379333A9094800F0FAFB22460121AF
:1021A000252000F0C5F8252000F0F8F8C5E7FFF776
:1021B00069FECCE7001001400044025800000258BC
:1021C000DFF834D0FFF728FF0C480D490D4A0023F3
:1021D00002E0D458C4500433C4188C42F9D30A4ADC
:1021E0000A4C002301E013600432A242FBD304F046
:1021F000D7FDFFF7A5FE7047000010240000002463
:10220000540800245C83000854080024E80A0024D1
:10221000FEE70000104B1B780BB90120704710B58A
:1022200004464FF47A70B0FBF3F30C4A1068B0FB2D
:10223000F3F000F0C1F868B90F2C01D901200AE0D1
:10224000002221464FF0FF3000F072F8044B1C6072
:10225000002000E0012010BD080000240000002440
:102260000C00002410B5032000F050F801F006F82F
:102270000F498B69C3F303230E4AD35C03F01F039A
:10228000D8408B6903F00F03D35C03F01F0320FADF
:1022900003F3094A1360094B18600320FFF7BAFFE4
:1022A00010B10124204610BD0446FFF755FEF9E7A2
:1022B00000440258A07F000804000024000000240D
:1022C000034B1B78034A11680B441360704700BF2F
:1022D0000800002408090024014B1868704700BF5B
:1022E0000809002438B50446FFF7F6FF0546B4F1A7
:1022F000FF3F02D0044B1B781C44FFF7EDFF401B4F
:10230000A042FAD338BD00BF080000240649CB68BC
:1023100023F4E0631B041B0C000200F4E0600343A1
:10232000024A1A43CA60704700ED00E00000FA0557
:1023300000B5174BDB68C3F30223C3F1070CBCF1F4
:10234000040F28BF4FF0040C03F1040EBEF1060F7A
:1023500014D9033B4FF0FF3E0EFA0CFC21EA0C01AE
:1023600099400EFA03F322EA03031943002807DB1E
:102370000901C9B2074B19545DF804FB0023E9E7D2
:1023800000F00F000901C9B2034B1954F4E700BF74
:1023900000ED00E000E400E014ED00E0002807DBC1
:1023A00000F01F02400901239340024A42F8203006
:1023B000704700BF00E100E00138B0F1807F0BD230
:1023C0004FF0E0235861054AF02182F823100020E5
:1023D000986107221A6170470120704700ED00E004
:1023E00070B50446FFF778FF002C00F09181054698
:1023F00094F83530DBB2022B06D0802363650023CE
:1024000084F83430012070BD23688C498C4A934293
:1024100018BF8B4230D0183293422DD018329342DD
:102420002AD01832934227D01832934224D018323F
:10243000934221D0183293421ED002F55672934235
:102440001AD01832934217D01832934214D018324F
:10245000934211D0183293420ED0183293420BD0CF
:102460001832934208D01832934205D01A6822F0ED
:102470000E021A60266809E01A6822F01E021A602D
:102480002268536923F080035361266823686B49EF
:102490006B4A934218BF8B4242D0183293423FD0CE
:1024A000183293423CD01832934239D018329342BA
:1024B00036D01832934233D01832934230D002F5DE
:1024C000567293422CD01832934229D0183293423C
:1024D00026D01832934223D01832934220D018329B
:1024E00093421DD0183293421AD01832934217D01B
:1024F000544A934214D01432934211D0143293426E
:102500000ED0143293420BD01432934208D01432BE
:10251000934205D01432934202D01432934204D134
:10252000226E136823F48073136023684349444A7E
:10253000934218BF8B422FD0183293422CD01832BE
:10254000934229D01832934226D01832934223D096
:102550001832934220D0183293421DD002F55672A1
:10256000934219D01832934216D01832934213D0A6
:102570001832934210D0183293420DD01832934241
:102580000AD01832934207D01832934204D01A6806
:1025900022F001021A6003E01A6822F001021A60B8
:1025A000336813F0010F0ED0FFF796FE431B052B87
:1025B000F6D920236365032384F83530002384F89B
:1025C000343001201FE723681C491D4A934218BF7D
:1025D0008B4239D01832934236D01832934233D0DE
:1025E0001832934230D0183293422DD01832934291
:1025F0002AD01832934227D002F55672934223D044
:102600001832934220D0183293421DD01832934290
:102610001AD01832934217D01832934214D018327D
:10262000934211D0183293420ED0A16DE36D03F0A6
:102630001F02012393404B600DE000BF10000240D9
:102640002800024008540258A16DE36D03F01F02F8
:102650003F2393408B6023682E492F4A934218BF33
:102660008B4242D0183293423FD0183293423CD032
:102670001832934239D01832934236D018329342EE
:1026800033D01832934230D002F5567293422CD098
:102690001832934229D01832934226D018329342EE
:1026A00023D01832934220D0183293421DD01832D2
:1026B00093421AD01832934217D0184A934214D03A
:1026C0001432934211D0143293420ED014329342FA
:1026D0000BD01432934208D01432934205D01432F6
:1026E000934202D0143293420BD1636EA26E5A60B1
:1026F000E36E33B11A6822F480721A60236F626F3E
:102700005A60012384F83530002084F834007AE6DA
:10271000012078E6100002402800024008540258C8
:10272000002800F0298108B5024690F83530DBB268
:10273000022B03D080234365012008BD0368904825
:1027400090498B4218BF83420CBF0121002166D003
:102750003030834263D01830834260D018308342D7
:102760005DD0183083425AD01830834257D0183089
:10277000834254D000F55670834250D018308342C3
:102780004DD0183083424AD01830834247D0183099
:10279000834244D01830834241D0183083423ED027
:1027A000183083423BD0196821F00E01196013687C
:1027B000A0F5956073498B4218BF83426AD0724975
:1027C0008B4267D018318B4264D018318B4261D074
:1027D00018318B425ED018318B425BD018318B425E
:1027E00058D001F556718B4254D018318B4251D0DC
:1027F00018318B424ED018318B424BD018318B425E
:1028000048D018318B4245D018318B4242D0183114
:102810008B423FD0196821F0010119603EE004208D
:1028200082F8350081BB584A93422DD0183293422A
:102830002AD01832934227D01832934224D018322B
:10284000934221D0183293421ED002F55672934221
:102850001AD01832934217D01832934214D018323B
:10286000934211D0183293420ED0183293420BD0BB
:102870001832934208D01832934205D01A6822F0D9
:1028800001021A60002058E71A6822F001021A605B
:10289000002052E7196821F00101196013683848D7
:1028A00038498B4218BF834242D018318B423FD007
:1028B00018318B423CD018318B4239D018318B42C1
:1028C00036D018318B4233D018318B4230D001F5DD
:1028D00056718B422CD018318B4229D018318B4243
:1028E00026D018318B4223D018318B4220D018319A
:1028F0008B421DD018318B421AD018318B4217D021
:1029000022498B4214D014318B4211D014318B42A6
:102910000ED014318B420BD014318B4208D01431BD
:102920008B4205D014318B4202D014318B4217D127
:10293000116E0B6823F480730B60906DD36D03F000
:102940001F0101238B404360536E916E5960D36E1B
:1029500033B1196821F480711960136F516F596098
:10296000012382F83530002382F83430136D2BB107
:10297000104698470020E0E6012070470020DCE682
:102980001000024028000240400002400854025853
:1029900070B582B000236EE085685E000324B44009
:1029A00025EA0405CC68B4402C438460446824EADA
:1029B0000C0C4C68C4F300149C4044EA0C044460C2
:1029C0006CE0DD08083550F8256003F007044FEA95
:1029D000840C0F2404FA0CF426EA040E0C6904FAA1
:1029E0000CF444EA0E0440F825406FE0092400E0AE
:1029F000002404FA0EF42C430CF1020C6B4D45F844
:102A00002C404FF0B0442568D44325EA0206D1F8A3
:102A100004C01CF4801F01D042EA05064FF0B04507
:102A20002E606D6804EA0506D1F804C01CF4001F8E
:102A300001D042EA05064FF0B0456E60D5F88450EB
:102A400004EA0506D1F804C01CF4003F01D042EAB4
:102A500005064FF0B045C5F88460D5F880502C408D
:102A60004E6816F4803F01D042EA05044FF0B042B0
:102A7000C2F8804001330A6832FA03F400F0938010
:102A80004FF0010C0CFA03FC1CEA0202F2D04C6875
:102A900004F00304013C012C7FF67EAF4C6804F087
:102AA0000304032C0CD0C4685D004FF0030C0CFA37
:102AB00005FC24EA0C0C8C68AC4044EA0C04C460AD
:102AC0004C6804F00304022C3FF47BAF04684FEA27
:102AD000430E4FF0030C0CFA0EFC24EA0C0C4C686D
:102AE00004F0030404FA0EF444EA0C0404604C6895
:102AF00014F4403FBED02E4CD4F8545145F002059A
:102B0000C4F85451D4F8544104F002040194019CD7
:102B10004FEA930C0CF10205244C54F8255003F0B5
:102B200003044FEA840E0F2404FA0EF425EA040588
:102B3000204CA0423FF45CAF04F58064A04222D058
:102B400004F58064A04220D004F58064A0421ED029
:102B500004F58064A0421CD004F58064A0421AD021
:102B600004F58064A04218D004F58064A04216D019
:102B700004F58064A04214D004F58064A0423FF4C0
:102B800035AF0A2435E7012433E7022431E7032473
:102B90002FE704242DE705242BE7062429E7072443
:102BA00027E7082425E702B070BD00BF00040058E5
:102BB00000440258000002580AB1816170470904BC
:102BC00081617047134BDB6813F0040F07D1114B81
:102BD000DB6803F0070383421AD00120704710B569
:102BE0000C4AD36823F007031843D060FFF774FB47
:102BF0000446084B5B6813F4005F07D1FFF76CFBDA
:102C0000001BB0F57A7FF4D9012000E0002010BD50
:102C10000020704700480258002800F0118338B5A2
:102C20000446036813F0010F29D0A14A136903F089
:102C30003803926A102B19D0182B13D06368B3F5A0
:102C4000803F43D0002B58D1994B1A6822F4803230
:102C50001A601A6822F480121A601A6822F480221C
:102C60001A6038E002F00302022AE7D1904B1B6899
:102C700013F4003F03D06368002B00F0E382236865
:102C800013F0020F00F0A280894A1369926A13F0D0
:102C9000380374D0182B6FD0E368002B00F0C3808A
:102CA00083490A6822F0190213430B60FFF714FBF3
:102CB00005467F4B1B6813F0040F40F0AB80FFF715
:102CC0000BFB401B0228F4D90320C2E2784A1368A8
:102CD00043F4803313606368002B3ED0FFF7FCFAA7
:102CE0000546734B1B6813F4003FC8D1FFF7F4FA95
:102CF000401B6428F5D90320ABE2B3F5A02F10D018
:102D0000B3F5A81F1BD06A4B1A6822F480321A60F0
:102D10001A6822F480221A601A6822F480121A605B
:102D2000D9E7634B1A6842F480221A601A6822F4C9
:102D300080121A601A6842F480321A60CBE75C4B4A
:102D40001A6842F480221A601A6842F480121A60EB
:102D50001A6842F480321A60BDE7FFF7BDFA0546F3
:102D6000534B1B6813F4003F89D0FFF7B5FA401BA3
:102D70006428F5D903206CE212F0030F8CD14C4B80
:102D80001B6813F0040F03D0E368002B00F05C8293
:102D9000474A136823F01903E1680B431360FFF7F8
:102DA0009BFA0546424B1B6813F0040F06D1FFF750
:102DB00093FA401B0228F5D903204AE23C4A5368A3
:102DC00023F0FE43216943EA01635360236813F053
:102DD000100F51D0364A136903F03803926A082B5A
:102DE00039D0182B33D0E369002B6CD0304A1368EC
:102DF00043F080031360FFF76FFA05462C4B1B6806
:102E000013F4807F56D1FFF767FA401B0228F5D9EB
:102E100003201EE2264A536823F0FE43216943EA59
:102E200001635360D2E7224A136823F00103136061
:102E3000FFF752FA05461E4B1B6813F0040FC5D06E
:102E4000FFF74AFA401B0228F5D9032001E202F0FD
:102E50000302012AC7D1164B1B6813F4807F03D0ED
:102E6000E369802B40F0F281114AD36823F07C5350
:102E7000216A43EA0163D360236813F0080F4AD044
:102E80006369002B33D00A4A536F43F00103536741
:102E9000FFF722FA0546064B5B6F13F0020F3AD19B
:102EA000FFF71AFA401B0228F5D90320D1E100BF31
:102EB000004402588C4AD36823F07C53216A43EAC9
:102EC0000163D360D8E7884A136823F08003136056
:102ED000FFF702FA0546844B1B6813F4807FCBD0C2
:102EE000FFF7FAF9401B0228F5D90320B1E17E4A29
:102EF000536F23F001035367FFF7EEF905467A4B52
:102F00005B6F13F0020F06D0FFF7E6F9401B0228B3
:102F1000F5D903209DE1236813F0200F29D0A36980
:102F20009BB1714A136843F480531360FFF7D4F9DF
:102F300005466D4B1B6813F4005F1AD1FFF7CCF9FF
:102F4000401B0228F5D9032083E1674A136823F464
:102F500080531360FFF7C0F90546634B1B6813F4F9
:102F6000005F06D0FFF7B8F9401B0228F5D903200F
:102F70006FE1236813F0040F22D1636A002B00F085
:102F80006781594A126902F03802182A00F00E814E
:102F9000022B00F09480544A136823F0807313606E
:102FA000FFF79AF90446504B1B6813F0007F00F0BE
:102FB000FB80FFF791F9001B0228F4D9032048E1B8
:102FC0004A4A136843F480731360FFF785F9054696
:102FD000464B1B6813F4807F06D1FFF77DF9401B39
:102FE0006428F5D9032034E1A368012B0ED033BB4C
:102FF0003D4B1A6F22F001021A671A6F22F080020D
:103000001A671A6F22F004021A6704E0364A136F37
:1030100043F001031367A368002B3ED0FFF75CF970
:103020000546314B1B6F13F0020FA6D1FFF754F981
:10303000401B41F288339842F3D9032009E1052B64
:103040000FD0852B1BD0284B1A6F22F001021A6774
:103050001A6F22F004021A671A6F22F080021A67B0
:10306000D9E7214B1A6F42F004021A671A6F22F057
:1030700080021A671A6F42F001021A67CBE71A4BF7
:103080001A6F42F004021A671A6F42F080021A6740
:103090001A6F42F001021A67BDE7FFF71DF90546F6
:1030A000114B1B6F13F0020F3FF467AFFFF714F9DA
:1030B000401B41F288339842F2D90320C9E00A4A02
:1030C000136823F080731360FFF706F90546064B7B
:1030D0001B6813F0007F0BD0FFF7FEF8401B02289F
:1030E000F5D90320B5E000BF00440258004802585B
:1030F0005F4B996A5F4A0A40A16AE06A41EA00119F
:103100000A439A62226B013AC2F30802616B0139E9
:10311000490289B20A43A16B0139090401F4FE0195
:103120000A43E16B0139090601F0FE410A431A63C3
:10313000DA6A22F00102DA62596B4F4A0A40A16C46
:1031400042EAC1025A63DA6A22F00C02216C0A4395
:10315000DA62DA6A22F00202616C0A43DA62DA6A3F
:1031600042F48032DA62DA6A42F40032DA62DA6A0F
:1031700042F48022DA62DA6A42F00102DA621A6804
:1031800042F080721A60FFF7A7F80446384B1B68BC
:1031900013F0007F06D1FFF79FF8001B0228F5D936
:1031A000032056E0002054E0002052E030498A6AB3
:1031B000086B012B4ED002F00303A16A8B424BD166
:1031C000C2F30512E36A9A4248D1C0F30802236BA6
:1031D000013B9A4244D1C0F34622636B013B9A42C1
:1031E00040D1C0F30642A36B013B9A423CD1C0F3ED
:1031F0000660E36B013B984238D11D4B5B6BC3F318
:10320000CC03A26C9A4201D1002022E0184AD36A72
:1032100023F00103D362FFF75FF80546FFF75CF880
:10322000A842FBD0124A516B134B0B40A16C43EAEE
:10323000C1035363D36A43F00103D362002008E063
:1032400001207047012004E0012002E0012000E09D
:10325000002038BD0120FCE70120FAE70120F8E753
:103260000120F6E70120F4E70120F2E70120F0E772
:10327000004402580CFCFFFF0700FFFFF8B57E4B2F
:103280001B6903F03803102B00F0F280182B10D0CC
:1032900013B17A4C2046F8BD774B1B6813F0200F12
:1032A00000F0E880744B1868C0F3C100744CC4404F
:1032B000F0E7714B9D6A05F003059C6AC4F30514A1
:1032C000D86A00F001005B6BC3F3CC0303FB00F092
:1032D000FDF7CCF80646002CDCD0012D76D0022D6F
:1032E00000F0A4800DB32046FDF7C0F80146654804
:1032F000FDF7C8F90446604B186BC0F30800FDF7F2
:10330000B5F805464FF064513046FDF707F9014620
:103310002846FCF7FBFF4FF07E51FCF7F7FF014614
:103320002046FDF7FBF8044671E0534B1B6813F091
:10333000200F29D0504F3B68C3F3C1035048D840F9
:10334000FDF794F805462046FDF790F8014628461B
:10335000FDF798F90446386BC0F30800FDF786F8CE
:1033600005464FF064513046FDF7D8F8014628462F
:10337000FCF7CCFF4FF07E51FCF7C8FF014620461A
:10338000FDF7CCF8044642E02046FDF76FF8014611
:103390003D48FDF777F90446374B186BC0F308003A
:1033A000FDF764F805464FF064513046FDF7B6F876
:1033B00001462846FCF7AAFF4FF07E51FCF7A6FF16
:1033C00001462046FDF7AAF8044620E02046FDF716
:1033D0004DF801462B48FDF755F90446264B186B6E
:1033E000C0F30800FDF742F805464FF0645130463F
:1033F000FDF794F801462846FCF788FF4FF07E5110
:10340000FCF784FF01462046FDF788F804461A4B76
:103410001B6BC3F34623581CFDF728F801462046D2
:10342000FDF730F9FDF7CAF9044633E72046FDF70A
:103430001DF801461548FDF725F904460E4B186B9B
:10344000C0F30800FDF712F805464FF0645130460E
:10345000FDF764F801462846FCF758FF4FF07E510F
:10346000FCF754FF01462046FDF758F80446CEE726
:10347000074C0FE7024C0DE70044025800093D00DD
:103480000090D0030024744A0024744C20BCBE4B2E
:1034900040787D01002800F0328170B50D46044669
:1034A0009B4B1B6803F00F038B420BD2984A1368A7
:1034B00023F00F030B431360136803F00F038B42D9
:1034C00040F01F81236813F0040F0CD02269914B48
:1034D0009B6903F070039A4205D98E498B6923F0EA
:1034E00070031A438A61236813F0080F0CD06269D5
:1034F000884BDB6903F070039A4205D98549CB6993
:1035000023F070031A43CA61236813F0100F0CD024
:10351000A269804BDB6903F4E0639A4205D97D49D7
:10352000CB6923F4E0631A43CA61236813F0200FC8
:103530000CD0E269774B1B6A03F070039A4205D9FD
:1035400074490B6A23F070031A430A62236813F06C
:10355000020F0CD0E2686F4B9B6903F00F039A4295
:1035600005D96C498B6923F00F031A438A612368DC
:1035700013F0010F41D0674A936923F47063A16887
:103580000B4393616368022B0AD0032B27D0012BD6
:103590002CD0604A126812F0040F06D10120ADE071
:1035A000126812F4003F00F0AE805A490A6922F016
:1035B000070213430B61FEF78FFE0646554B1B694E
:1035C00003F038036268B3EBC20F16D0FEF784FE37
:1035D000801B41F288339842F0D903208EE04D4A97
:1035E000126812F0007FE0D1012087E0494A12689A
:1035F00012F4807FD9D1012080E0236813F0020FFC
:103600000CD0E268434B9B6903F00F039A4205D24A
:1036100040498B6923F00F031A438A613C4B1B68B6
:1036200003F00F03AB420AD9394A136823F00F03A2
:103630002B431360136803F00F03AB4265D123687B
:1036400013F0040F0CD02269324B9B6903F0700316
:103650009A4205D22F498B6923F070031A438A617D
:10366000236813F0080F0CD062692A4BDB6903F062
:1036700070039A4205D22749CB6923F070031A439D
:10368000CA61236813F0100F0CD0A269214BDB69CB
:1036900003F4E0639A4205D21E49CB6923F4E06348
:1036A0001A43CA61236813F0200F0CD0E269194B4A
:1036B0001B6A03F070039A4205D216490B6A23F085
:1036C00070031A430A62FFF7D9FD12498B69C3F3ED
:1036D0000323114AD35C03F01F03D8408B6903F026
:1036E0000F03D35C03F01F0320FA03F30B4A1360AC
:1036F0000B4B18600B4B1868FEF78CFD70BD01205A
:1037000070470120FAE70120F8E70120F6E700BF43
:103710000020005200440258A07F0008040000244A
:10372000000000240C00002408B5FFF7A7FD0B4A99
:103730009369C3F303230A49CB5C03F01F0320FA08
:1037400003F3926902F00F02885C00F01F0023FA75
:1037500000F0044A1060044A136008BD0044025897
:10376000A07F0008040000240000002408B5FFF733
:10377000DBFF054BDB69C3F30213044AD35C03F0A0
:103780001F03D84008BD00BF00440258A07F0008B6
:1037900008B5FFF7C9FF054BDB69C3F30223044AF1
:1037A000D35C03F01F03D84008BD00BF004402589B
:1037B000A07F0008404B9B6A03F00303032B79D0E2
:1037C00070B505460E463C4A136823F080631360CB
:1037D000FEF782FD0446384B1B6813F0006F06D0DD
:1037E000FEF77AFD031B022BF5D9032070BD324B87
:1037F0009A6A22F47C32296842EA01329A626A6843
:10380000013AC2F30802A9680139490289B20A43A0
:10381000E9680139090401F4FE010A432969013903
:10382000090601F0FE410A439A63DA6A22F0C002F7
:1038300069690A43DA62DA6A22F02002A9690A4356
:10384000DA62DA6A22F01002DA62D96B1B4A0A40A5
:10385000E96942EAC102DA63DA6A42F01002DA6226
:10386000C6B91A46DB6A43F40023D362124A1368CE
:1038700043F080631360FEF72FFD04460E4B1B6878
:1038800013F0006F14D1FEF727FD001B0228F5D9B5
:103890000320ABE7012E05D0074AD36A43F4001397
:1038A000D362E3E7044AD36A43F48013D362DDE7CB
:1038B00000209BE701207047004402580700FFFFEB
:1038C000404B9B6A03F00303032B79D070B5054688
:1038D0000E463C4A136823F080531360FEF7FCFC4D
:1038E0000446384B1B6813F0005F06D0FEF7F4FC6B
:1038F000031B022BF5D9032070BD324B9A6A22F0CC
:103900007C72296842EA01529A626A68013AC2F3FB
:103910000802A9680139490289B20A43E9680139F4
:10392000090401F4FE010A4329690139090601F07D
:10393000FE410A431A64DA6A22F4406269690A4362
:10394000DA62DA6A22F40072A9690A43DA62DA6A90
:1039500022F48072DA62596C1B4A0A40E96942EA31
:10396000C1025A64DA6A42F48072DA62C6B91A464F
:10397000DB6A43F48003D362124A136843F0805336
:103980001360FEF7A9FC04460E4B1B6813F0005FA2
:1039900014D1FEF7A1FC001B0228F5D90320ABE7E8
:1039A000012E05D0074AD36A43F08073D362E3E760
:1039B000044AD36A43F40003D362DDE700209BE7A7
:1039C00001207047004402580700FFFFF8B5044685
:1039D000036813F0006F30D0C36EB3F5001F26D01C
:1039E0000ED8EBB1B3F5801F07D102210830FFF7E5
:1039F000E1FE054645B12E4621E0012635461EE092
:103A0000B3F5401F09D100259C4A136D23F44013E0
:103A1000E16E0B431365002611E0012635460EE0EA
:103A2000964AD36A43F40033D3620025ECE70221BF
:103A30002830FFF745FF0546DCE7002635462368BA
:103A400013F4807F27D0A36D042B20D8DFE803F088
:103A5000031118080800894AD36A43F40033D3627B
:103A6000C5B9864A136D23F00703A16D0B43136597
:103A700011E0002104F10800FFF79CFE0546EFE786
:103A8000002104F12800FFF71BFF0546E8E70126A7
:103A9000354600E02E46236813F4007F1ED0E36D08
:103AA000802B3BD00CD89BB3402B06D1002104F1D6
:103AB0000800FFF77FFE054608E0012635460DE0C9
:103AC000B3F5807F02D0B3F5A07F1CD16DBB6B4AEC
:103AD000136D23F4E073E16D0B431365236813F456
:103AE000806F36D0236EB3F5806F58D022D8002B6C
:103AF0004FD0B3F5007F1AD1002104F10800FFF781
:103B000059FE05461CE0C02BE0D001263546E5E70E
:103B10005A4AD36A43F40033D362D7E7002104F151
:103B20002800FFF7CDFE0546D0E72E46D6E7012652
:103B300035460EE0B3F5006F02D0B3F5206F22D109
:103B4000002D33D14D4A136D23F46063216E0B4376
:103B50001365236813F0007F31D0E36C202B42D033
:103B600029D833B1102B23D1444AD36A43F400330C
:103B7000D362002D3ED1414AD36C23F03003E16C77
:103B80000B43D3641BE0B3F5C06FD9D00126354693
:103B9000DFE73A4AD36A43F40033D362D0E7002127
:103BA00004F12800FFF78CFE0546C9E72E46D0E752
:103BB0000126354603E0302BDBD00126354623684D
:103BC00013F4805F3BD0636EB3F5005F2FD016D83F
:103BD0003BB3B3F5805F0FD1002104F10800FFF77C
:103BE000E9FD054611E0022104F10800FFF7E2FDBE
:103BF0000546BEE72E46E2E7012635461FE0B3F54F
:103C0000405F02D0B3F5804F08D1BDB91B4A136D98
:103C100023F4E043616E0B43136510E00126354643
:103C20000DE0164AD36A43F40033D362EDE7002176
:103C300004F12800FFF744FE0546E6E72E46236818
:103C400013F4005F27D0A36EB3F5003F39D017D827
:103C500043B1B3F5803F0ED1012104F10800FFF715
:103C6000A9FD0546A5BB054A136D23F4E023A16E0B
:103C70000B4313650FE0012635460CE00044025863
:103C8000B3F5802FEED0B3F5A02FEBD0B3F5403FC6
:103C9000E8D001263546236813F4804F26D0D4F8A7
:103CA000B030B3F1005F4DD017D8002B3DD0B3F149
:103CB000805F0FD1012104F10800FFF77BFD05466D
:103CC00033E0012104F12800FFF7FAFD0546C9E7BA
:103CD0002E46E0E70126354608E0B3F1A04F24D098
:103CE0001DD9B3F1C04F20D001263546236813F407
:103CF000004F09D0A36FB3F1805F2CD0B3F1005F08
:103D000037D06BB301263546236813F0807F46D049
:103D1000A36C032B6FD8DFE803F03A35673AB3F1B1
:103D2000405F02D0B3F1804F09D195B98E4A936DAF
:103D300023F0E043D4F8B0100B439365D6E7012697
:103D40003546D3E7012104F12800FFF7B9FD054608
:103D5000EBE72E46CAE7844AD36A43F40033D362C2
:103D600075B9814A136D23F04053A16F0B4313655E
:103D7000CAE7012104F10800FFF71CFD0546EFE743
:103D80002E46C1E7784AD36A43F40033D362ADBB11
:103D9000754AD36C23F00303A16C0B43D3642368EF
:103DA00013F4800F2CD1236813F0010F00F0A580CD
:103DB000D4F88430282B00F29E80DFE803F08B9C3F
:103DC0009C9C9C9C9C9C859C9C9C9C9C9C9C959C51
:103DD0009C9C9C9C9C9C8B9C9C9C9C9C9C9C8B9C45
:103DE0009C9C9C9C9C9C8B00022104F10800FFF78A
:103DF000E1FC0546CBE701263546D0E72E46CEE767
:103E00005A4A136843F480731360FEF765FA074655
:103E1000564B1B6813F4807F05D1FEF75DFAC01B7B
:103E20006428F5D90325002D4AD14F4B1B6FD4F8D8
:103E3000B420534013F4407F0CD04B4B1A6F22F444
:103E40004072196F41F480311967196F21F4803184
:103E500019671A67D4F8B430B3F5807F15D08DBBDD
:103E6000D4F8B43003F44072B2F5407F1ED03E4A1D
:103E7000136923F47C5313613B490B6FD4F8B420CE
:103E8000C2F30B0213430B678DE7FEF725FA0746D3
:103E9000354B1B6F13F0020FE1D1FEF71DFAC01B6B
:103EA00041F288339842F3D90325D8E72E480269B6
:103EB00022F47C522E4901EA131313430361DBE71A
:103EC0002E4670E72E466EE7012104F10800FFF749
:103ED00071FC0546F5B9244A536D23F03803D4F834
:103EE00084100B43536508E0012104F12800FFF71B
:103EF000E7FC0546EEE701263546236813F0020F7E
:103F000019D0D4F88030052B29D8DFE803F00B0551
:103F1000210B0B0B2E46F0E7012104F10800FFF7FF
:103F200049FC0546F5B9104A536D23F00703D4F850
:103F300080100B435365236813F0040F29D0D4F885
:103F40009C30052B4BD8DFE803F01B15431B1B1BD4
:103F5000012104F12800FFF7B3FC0546E2E7012642
:103F60003546E8E72E46E6E7004402580048025886
:103F7000CFFFFF00012104F10800FFF71BFC0546FD
:103F800085BBAC4A936D23F00703D4F89C100B4318
:103F90009365236813F0200F34D0D4F89830B3F130
:103FA000005F4ED023D843B1B3F1805F1CD1002114
:103FB00004F10800FFF7FEFB0546002D48D19D4A9D
:103FC000536D23F0E043D4F898100B43536519E088
:103FD000012104F12800FFF773FC0546D0E7012614
:103FE0003546D6E72E46D4E7012635460AE0B3F13A
:103FF000804FE2D0B3F1A04FDFD0B3F1405FDCD00F
:1040000001263546236813F0400F31D0D4F8A43090
:10401000B3F5006F4DD020D843B1B3F5806F19D1FF
:10402000002104F10800FFF7C5FB0546002D47D12C
:10403000804A936D23F4E053D4F8A4100B439365A6
:1040400016E0022104F12800FFF73AFC0546B4E728
:104050002E46D7E7012635460AE0B3F5805FE5D066
:10406000B3F5A05FE2D0B3F5406FDFD0012635464F
:10407000236813F0800F33D0D4F8A830B3F5804F05
:1040800000F0A38021D843B1B3F5005F1AD100211D
:1040900004F10800FFF78EFB0546002D40F09C80E0
:1040A000644A936D23F46043D4F8A8100B439365DE
:1040B00016E0022104F12800FFF702FC0546B5E7EF
:1040C0002E46D5E7012635460AE0B3F5004FE4D089
:1040D000B3F5204FE1D0B3F5C04FDED00126354611
:1040E000236813F0080F0CD0D4F88C30B3F5805F40
:1040F00074D0504A536D23F44053D4F88C100B43C2
:104100005365236813F0100F0CD0D4F8A030B3F52A
:10411000807F6CD0474A936D23F44073D4F8A0108D
:104120000B439365236813F4002F0BD0D4F8AC3005
:10413000B3F5803F74D0B3F5003F67D0002B5FD05C
:1041400001263546236813F4802F0CD0D4F8903024
:10415000B3F5001F7FD0B3F5401F72D0B3F5801FB9
:104160006AD001263546236813F4803F08D0236DBA
:10417000002B79D0B3F5803F00F0848001263546CE
:10418000236813F0005F40F08680236813F4003F3B
:1041900000F08E80D4F88830B3F5807F00F0EB809B
:1041A00040F28380B3F5007F03D0B3F5407F40F049
:1041B000E080002D40F0E5801E4A536D23F44073EB
:1041C000D4F888100B43536572E0022104F12800F3
:1041D000FFF776FB054660E72E4681E7022104F1F2
:1041E0002800FFF76DFB002883D0012681E702211C
:1041F00004F12800FFF764FB00288BD0012689E733
:10420000002104F10800FFF7D5FA05467DB9094AF7
:10421000936D23F44033D4F8AC100B43936591E7CE
:10422000022104F12800FFF74BFB0546EEE72E467E
:1042300088E700BF004402586E4AD36A43F4003353
:10424000D3627DB96B4A536D23F44013D4F89010B8
:104250000B43536587E7012104F12800FFF730FB8A
:104260000546EEE72E467EE7624AD36A43F4003302
:10427000D36275B95F4AD36C23F48033216D0B434D
:10428000D3647DE7022104F10800FFF793FA0546A5
:10429000EFE72E4674E7022104F12800FFF710FB38
:1042A00000283FF472AF01266FE7002B81D0012672
:1042B000236813F4801F06D04E4A136D23F0004389
:1042C000E16F0B431365236813F4001F06D0494ABE
:1042D000136D23F08073216F0B431365236813F470
:1042E000006F06D0434A936D23F00063616F0B4368
:1042F0009365236813F0804F09D03E4B1A6922F46E
:1043000000421A611A69D4F8B8100A431A61236886
:10431000002B06DA374AD36C23F04053616D0B4310
:10432000D364236813F4000F07D0324A536D23F48B
:104330004003D4F894100B435365636813F0010FE6
:1043400021D1636813F0020F26D1636813F0040FC4
:104350002BD1636813F0080F30D1636813F0100F8E
:1043600035D1636813F0200F3AD106B101263046EB
:10437000F8BD01269CE71F4AD36A43F40033D36299
:1043800017E72E4694E7002104F10800FFF712FA20
:104390000028D6D00646D4E7012104F10800FFF733
:1043A00009FA0028D1D00646CFE7022104F108001F
:1043B000FFF700FA0028CCD00646CAE7002104F136
:1043C0002800FFF77DFA0028C7D00646C5E701217F
:1043D00004F12800FFF774FA0028C2D00646C0E7AF
:1043E000022104F12800FFF76BFA0028BDD0064631
:1043F000BBE700BF0044025808B5FFF795F9054B2D
:104400001B6AC3F30213044AD35C03F01F03D840B2
:1044100008BD00BF00440258A07F00082DE9F0410C
:104420000446864B9D6A9E6AC6F30536D86AC0F379
:104430000010DB6BC3F3CC0303FB00F0FCF716F8B2
:10444000002E00F0F58005F003050746012D79D018
:10445000022D00F0CB800DB33046FCF707F8014683
:104460007748FCF70FF90546744B986BC0F30800CA
:10447000FBF7FCFF06464FF064513846FCF74EF858
:1044800001463046FBF742FF4FF07E51FBF73EFFFF
:1044900001462846FCF742F8054674E0674B1B6866
:1044A00013F0200F2CD0DFF89481D8F80030C3F33C
:1044B000C1036448D840FBF7D9FF05463046FBF7F7
:1044C000D5FF01462846FCF7DDF80546D8F8380048
:1044D000C0F30800FBF7CAFF06464FF064513846A8
:1044E000FCF71CF801463046FBF710FF4FF07E51F9
:1044F000FBF70CFF01462846FCF710F8054642E0A2
:104500003046FBF7B3FF01464F48FCF7BBF80546C2
:104510004A4B986BC0F30800FBF7A8FF06464FF024
:1045200064513846FBF7FAFF01463046FBF7EEFED2
:104530004FF07E51FBF7EAFE01462846FBF7EEFFFF
:10454000054620E03046FBF791FF01463C48FCF76A
:1045500099F80546394B986BC0F30800FBF786FFC6
:1045600006464FF064513846FBF7D8FF0146304607
:10457000FBF7CCFE4FF07E51FBF7C8FE0146284604
:10458000FBF7CCFF05462D4EB06BC0F34620FBF782
:104590006DFF4FF07E51FBF7B9FE01462846FCF750
:1045A00071F8FCF70BF92060B06BC0F30640FBF725
:1045B0005DFF4FF07E51FBF7A9FE01462846FCF750
:1045C00061F8FCF7FBF86060B06BC0F30660FBF7C6
:1045D0004DFF4FF07E51FBF799FE01462846FCF750
:1045E00051F8FCF7EBF8A060BDE8F0813046FBF72E
:1045F0003DFF01461548FCF745F805460F4B986B03
:10460000C0F30800FBF732FF06464FF0645138460E
:10461000FBF784FF01463046FBF778FE4FF07E51F2
:10462000FBF774FE01462846FBF778FF0546AAE72C
:10463000002323606360A360D6E700BF00440258F4
:104640000024744A0090D0030024744C20BCBE4B5C
:104650002DE9F0410446864B9D6A9E6AC6F30556D5
:10466000D86AC0F300205B6CC3F3CC0303FB00F0FB
:10467000FBF7FCFE002E00F0F58005F00305074671
:10468000012D79D0022D00F0CB800DB33046FBF721
:10469000EDFE01467748FBF7F5FF0546744B186CB5
:1046A000C0F30800FBF7E2FE06464FF064513846BF
:1046B000FBF734FF01463046FBF728FE4FF07E51F2
:1046C000FBF724FE01462846FBF728FF054674E069
:1046D000674B1B6813F0200F2CD0DFF89481D8F8BB
:1046E0000030C3F3C1036448D840FBF7BFFE054662
:1046F0003046FBF7BBFE01462846FBF7C3FF0546E5
:10470000D8F84000C0F30800FBF7B0FE06464FF0B3
:1047100064513846FBF702FF01463046FBF7F6FDD1
:104720004FF07E51FBF7F2FD01462846FBF7F6FEFF
:10473000054642E03046FBF799FE01464F48FBF73D
:10474000A1FF05464A4B186CC0F30800FBF78EFE2C
:1047500006464FF064513846FBF7E0FE014630460E
:10476000FBF7D4FD4FF07E51FBF7D0FD0146284604
:10477000FBF7D4FE054620E03046FBF777FE014606
:104780003C48FBF77FFF0546394B186CC0F3080027
:10479000FBF76CFE06464FF064513846FBF7BEFE51
:1047A00001463046FBF7B2FD4FF07E51FBF7AEFD00
:1047B00001462846FBF7B2FE05462D4E306CC0F38D
:1047C0004620FBF753FE4FF07E51FBF79FFD01465D
:1047D0002846FBF757FFFBF7F1FF2060306CC0F372
:1047E0000640FBF743FE4FF07E51FBF78FFD01467D
:1047F0002846FBF747FFFBF7E1FF6060306CC0F332
:104800000660FBF733FE4FF07E51FBF77FFD01465C
:104810002846FBF737FFFBF7D1FFA060BDE8F0812A
:104820003046FBF723FE01461548FBF72BFF0546F4
:104830000F4B186CC0F30800FBF718FE06464FF04C
:1048400064513846FBF76AFE01463046FBF75EFDD1
:104850004FF07E51FBF75AFD01462846FBF75EFEFE
:104860000546AAE7002323606360A360D6E700BF84
:10487000004402580024744A0090D0030024744C71
:1048800020BCBE4B026852E8003F23F4907342E81C
:1048900000310029F6D1026802F1080353E8001F35
:1048A0000D4B0B40083242E800310029F3D1C36EB2
:1048B000012B06D02023C0F88C300023C366436749
:1048C0007047026852E8003F23F0100342E80031CD
:1048D0000029F6D1EEE700BFFEFFFFEF704708B5F5
:1048E000026852E8003F23F0400342E8003100290B
:1048F000F6D12023C0F8883000238367FFF7EEFF4E
:1049000008BD704708B5806B0023A0F85E30A0F8A2
:104910005630FFF7F6FF08BD7047000070B504463B
:104920000168CB6908688D6840F60F021A4008D10B
:1049300013F0200F05D010F0200F34D115F0805F58
:1049400031D12AB18B4A2A4033D18B4E304230D1FB
:10495000E26E012A00F0C68013F4801F03D015F424
:10496000800F40F09B8113F0800F07D010F0800F74
:1049700040F09B8115F4000F40F0978113F0400F39
:1049800003D010F0400F40F0978113F4000F03D0D4
:1049900010F0804F40F0948113F0807F02D0002807
:1049A000C0F2928170BD636F002BFBD02046984708
:1049B000F8E713F0010F09D010F4807F06D001262C
:1049C0000E62D4F890103143C4F8901013F0020F27
:1049D0000BD015F0010F08D0216802260E62D4F822
:1049E000901041F00401C4F8901013F0040F0BD0A4
:1049F00015F0010F08D0216804260E62D4F890103B
:104A000041F00201C4F8901013F0080F0BD010F021
:104A1000200F00D13AB1226808211162D4F8902009
:104A20000A43C4F8902013F4006F0CD010F0806F8C
:104A300009D022684FF400611162D4F8902042F04E
:104A40002002C4F89020D4F89020002AAAD013F0B5
:104A5000200F09D010F0200F02D115F0805F03D095
:104A6000636F0BB120469847D4F8902023689B6869
:104A700013F0400F02D112F0280F2CD02046FFF780
:104A800001FF23689B6813F0400F20D0226802F1D9
:104A9000080353E8003F23F04003083242E80031A6
:104AA0000029F3D1D4F880306BB1344A1A65D4F8B8
:104AB0008000FDF735FE00283FF474AFD4F8800085
:104AC000036D98476EE72046FFF71BFF6AE7204615
:104AD000FFF717FF66E72046FFF713FF0023C4F830
:104AE00090305FE713F0100F3FF436AF10F0100F67
:104AF0003FF432AF10230B6223689B6813F0400F22
:104B000000F09280D4F8802013681D481D498B4224
:104B100018BF834238D018318B4235D018318B42C0
:104B200032D018318B422FD018318B422CD0183113
:104B30008B4229D018318B4226D001F556718B4219
:104B400022D018318B421FD018318B421CD0183123
:104B50008B4219D018318B4216D018318B4213D0AA
:104B600018318B4210D018318B420DD05B689BB24C
:104B70000CE000BF010000102001000405490008FE
:104B800010000240280002405B689BB2002B3FF4FB
:104B900009AFB4F85C1099427FF604AFA4F85E3018
:104BA000D369B3F5807F32D0226852E8003F23F406
:104BB000807342E800310029F6D1226802F108032F
:104BC00053E8003F23F00103083242E80031002996
:104BD000F3D1226802F1080353E8003F23F04003B9
:104BE000083242E800310029F3D12023C4F88C3088
:104BF0000023E366226852E8003F23F0100342E8F6
:104C000000310029F6D1D4F88000FDF7E9FB02233A
:104C10002367B4F85C10B4F85E309BB2C91A89B24D
:104C20002046FFF779FEBDE6B4F85C10B4F85E30BC
:104C30009BB2C91A89B2B4F85E309BB2002B3FF424
:104C4000B1AE00293FF4AEAE226852E8003F23F433
:104C5000907342E800300028F6D1226802F1080380
:104C600053E8000F1A4B0340083242E80030002896
:104C7000F3D12023C4F88C300023E36663672268F5
:104C800052E8003F23F0100342E800300028F6D13C
:104C9000022323672046FFF73FFE83E64FF480138D
:104CA0000B62204601F040F97CE6A36F002B3FF435
:104CB00079AE2046984775E62046FFF710FE71E66C
:104CC000204601F033F96DE6204601F02EF969E641
:104CD000FEFFFFEF08B5B0F86030D0F88C20222A34
:104CE00005D00268936943F00803936108BD026828
:104CF000516ADBB2826D0B401370836D01338365A3
:104D0000B0F85E309BB2013B9BB2A0F85E30B0F8C9
:104D10005E309BB2002BE9D1026852E8003F23F4D9
:104D2000907342E800310029F6D1026802F10803CD
:104D300053E8003F23F00103083242E80031002924
:104D4000F3D12023C0F88C30002343670367036846
:104D5000164A93420CD05B6813F4000F08D0026827
:104D600052E8003F23F0806342E800310029F6D189
:104D7000C36E012B16D10023C366026852E8003FC0
:104D800023F0100342E800310029F6D10368DA6904
:104D900012F0100F01D010221A62B0F85C10FFF769
:104DA000BBFDA3E701F0D4FFA0E700BF000C005853
:104DB00008B5B0F86020D0F88C30222B05D00268FE
:104DC000936943F00803936108BD03685B6A816DD2
:104DD00013400B80836D02338365B0F85E309BB265
:104DE000013B9BB2A0F85E30B0F85E309BB2002B66
:104DF000EAD1026852E8003F23F4907342E80031A0
:104E00000029F6D1026802F1080353E8003F23F0BD
:104E10000103083242E800310029F3D12023C0F811
:104E20008C300023436703670368164A93420CD013
:104E30005B6813F4000F08D0026852E8003F23F0CB
:104E4000806342E800310029F6D1C36E012B16D1F0
:104E50000023C366026852E8003F23F0100342E8D3
:104E600000310029F6D10368DA6912F0100F01D081
:104E700010221A62B0F85C10FFF74EFDA4E701F0B3
:104E800067FFA1E7000C00582DE9F843B0F8606017
:104E90000368DD69D3F80090D3F80880D0F88C203F
:104EA000222A05D09A6942F008029A61BDE8F88387
:104EB0000446B0F8687008E0D4F89030002B4CD16C
:104EC000B4F85E309BB2002B4ED0002F00F09880DB
:104ED00015F0200F00F094802368596AF3B2A26D98
:104EE0000B401370A36D0133A365B4F85E309BB221
:104EF000013B9BB2A4F85E302368DD6915F0070F13
:104F0000DED015F0010F09D019F4807F06D0012200
:104F10001A62D4F890301343C4F8903015F0020FA1
:104F20000BD018F0010F08D0236802221A62D4F8BF
:104F3000903043F00403C4F8903015F0040FBBD058
:104F400018F0010FB8D0236804221A62D4F8903008
:104F500043F00203C4F89030AEE72046FFF7D1FCDF
:104F60000023C4F89030ABE7226852E8003F23F4F6
:104F7000807342E800310029F6D1226802F108036B
:104F800053E8001F304B0B40083242E80031002943
:104F9000F3D12023C4F88C30002363672367236890
:104FA0002A4A934203D05B6813F4000F06D1E36EE4
:104FB000012B0DD0204601F0CBFE86E7226852E897
:104FC000003F23F0806342E800310029F6D1EEE78C
:104FD0000023E366226852E8003F23F0100342E812
:104FE00000310029F6D12368DA6912F0100F01D0E0
:104FF00010221A62B4F85C102046FFF78DFC64E7BB
:10500000B4F85E309BB2002B3FF450AFB4F8682088
:105010009A427FF64BAF226802F1080353E8003F43
:1050200023F08053083242E800310029F3D1084BC5
:105030006367226852E8003F43F0200342E80031F2
:105040000029F6D132E700BFFEFFFFEF000C005849
:10505000D54C00082DE9F843B0F860600368DD69BD
:10506000D3F80090D3F80880D0F88C20222A05D0FD
:105070009A6942F008029A61BDE8F8830446B0F8E4
:10508000687008E0D4F89030002B4BD1B4F85E3053
:105090009BB2002B4DD0002F00F0978015F0200F11
:1050A00000F0938023685B6AA26D33401380A36D88
:1050B0000233A365B4F85E309BB2013B9BB2A4F807
:1050C0005E302368DD6915F0070FDFD015F0010FA2
:1050D00009D019F4807F06D001221A62D4F89030EA
:1050E0001343C4F8903015F0020F0BD018F0010FE5
:1050F00008D0236802221A62D4F8903043F00403E7
:10510000C4F8903015F0040FBCD018F0010FB9D0DE
:10511000236804221A62D4F8903043F00203C4F8E2
:105120009030AFE72046FFF7ECFB0023C4F8903047
:10513000ACE7226852E8003F23F4807342E8003174
:105140000029F6D1226802F1080353E8001F304B12
:105150000B40083242E800310029F3D12023C4F883
:105160008C3000236367236723682A4A934203D065
:105170005B6813F4000F06D1E36E012B0DD02046BF
:1051800001F0E6FD87E7226852E8003F23F08063E4
:1051900042E800310029F6D1EEE70023E3662268F9
:1051A00052E8003F23F0100342E800310029F6D115
:1051B0002368DA6912F0100F01D010221A62B4F8D5
:1051C0005C102046FFF7A8FB65E7B4F85E309BB2A1
:1051D000002B3FF451AFB4F868209A427FF64CAFF1
:1051E000226802F1080353E8003F23F0805308329D
:1051F00042E800310029F3D1074B6367226852E887
:10520000003F43F0200342E800310029F6D133E7A4
:10521000FEFFFFEF000C0058B14D000870B586B0DE
:105220000446016883680269134342691343C269F3
:1052300013430868904A024013430B602268536886
:1052400023F44053E1680B435360A16922688B4B00
:105250009A4201D0236A19439068894B03400B435B
:1052600093602268D36A23F00F03616A0B43D36211
:105270002268844B9A4229D0834B9A4200F0948052
:10528000824B9A4200F0AA80814B9A4200F0C08083
:10529000804B9A4200F0D6807F4B9A4200F0088102
:1052A0007E4B9A4200F02D817D4B9A4200F0408166
:1052B0007C4B9A4200F053817B4B9A4200F07881FC
:1052C0006E4B9A4200F09D81802333E0774B5B6DFB
:1052D00003F03803282B65D8DFE813F029006400B9
:1052E000640064006400640064006400AB01640056
:1052F0006400640064006400640064002B006400C7
:105300006400640064006400640064005E00640083
:105310006400640064006400640064006000640071
:10532000640064006400640064006400620001239F
:1053300000E0082351498A4200F09481E069B0F509
:10534000004F00F00A82202B00F26282202B00F234
:10535000AC82DFE813F079027F02AA02AA0282027D
:10536000AA02AA02AA028702AA02AA02AA02AA0200
:10537000AA02AA02AA028C02AA02AA02AA02AA02EB
:10538000AA02AA02AA02AA02AA02AA02AA02AA02BD
:10539000AA02AA02AA0298021023CBE72023C9E797
:1053A0004023C7E78023C5E7404B5B6D03F007034D
:1053B000052B11D8DFE813F006003F0108000A00B2
:1053C0000C000E000023B5E70823B3E71023B1E774
:1053D0002023AFE74023ADE78023ABE7334B5B6D82
:1053E00003F00703052B11D8DFE813F006002701AF
:1053F00008000A000C000E0000239BE7082399E731
:10540000102397E7202395E7402393E7802391E734
:10541000264B5B6D03F00703052B11D8DFE813F073
:1054200006000F0108000A000C000E00002381E7AF
:1054300008237FE710237DE720237BE7402379E7DC
:10544000802377E7194B5B6D03F00703052B11D819
:10545000DFE813F00600F70008000A000C000E0059
:10546000002367E7082365E7102363E7202361E74C
:1054700040235FE780235DE7F369FFCF000C00580E
:10548000FFF4FF11001001400044004000480040BC
:10549000004C0040005000400014014000780040E3
:1054A000007C004000180140001C014000440258EC
:1054B000694B5B6D03F03803282B20D8DFE803F03D
:1054C000151F1F1F1F1F1F1FC31F1F1F1F1F1F1F52
:1054D000171F1F1F1F1F1F1F191F1F1F1F1F1F1FEA
:1054E0001B1F1F1F1F1F1F1F1D00012322E7082353
:1054F00020E710231EE720231CE740231AE7802320
:1055000018E7554B5B6D03F00703052B0ED8DFE85A
:1055100003F0039C0507090B00230BE7082309E7A9
:10552000102307E7202305E7402303E7802301E753
:10553000494B5B6D03F00703052B0ED8DFE803F042
:1055400003870507090B0023F4E60823F2E610237E
:10555000F0E62023EEE64023ECE68023EAE63E4B2D
:105560005B6D03F03803282B20D8DFE803F0151F0C
:105570001F1F1F1F1F1F721F1F1F1F1F1F1F171FF0
:105580001F1F1F1F1F1F191F1F1F1F1F1F1F1B1F35
:105590001F1F1F1F1F1F1D000123CBE60823C9E685
:1055A0001023C7E62023C5E64023C3E68023C1E6D7
:1055B000294B5B6D03F03803282B20D8DFE803F07C
:1055C000151F1F1F1F1F1F1F4E1F1F1F1F1F1F1FC6
:1055D000171F1F1F1F1F1F1F191F1F1F1F1F1F1FE9
:1055E0001B1F1F1F1F1F1F1F1D000123A2E60823D3
:1055F000A0E610239EE620239CE640239AE6802323
:1056000098E603F50E339B6D03F00703052B0ED8C8
:10561000DFE803F003260507090B02238AE60823C7
:1056200088E6102386E6202384E6402382E6802352
:1056300080E604237EE604237CE604237AE6042342
:1056400078E6042376E6042374E6042372E6042352
:1056500070E604236EE600BF00440258042369E6A6
:10566000042367E6202B27D8022BC0F01081023BD1
:105670001E2B00F20E81DFE813F050000C015600E3
:105680000C010C010C015B000C010C010C010C0164
:105690000C010C010C0160000C010C010C010C014F
:1056A0000C010C010C010C010C010C010C010C0192
:1056B0000C010C010C016C00402B2CD14FF400406C
:1056C000626A804B33F81220B0FBF2F3656805EB99
:1056D0004501994200F2DF80B3EB053F00F2DD8027
:1056E000002633463146FBF789F8090241EA10618A
:1056F00000026B08C0182A46334641F10001FBF74F
:105700007DF8A0F54072704B9A4200F2C880236881
:10571000D8603046CAE00120C8E0FEF76DFE0028E0
:10572000CED10020C2E003A8FEF778FE0498F6E789
:105730006846FEF78DFF0198F1E7644B1B6813F094
:10574000200F08D0614B1B68C3F3C1036048D840E9
:10575000E5E76048B4E75E48B2E7202B15D8202B78
:1057600000F29F80DFE803F031379D9D3A9D9D9DBB
:105770003F9D9D9D9D9D9D9D449D9D9D9D9D9D9D10
:105780009D9D9D9D9D9D9D9D5000402B1BD1626ABE
:105790004C4B33F81230B0FBF3F06268530803EB64
:1057A0004000B0FBF2F0A0F110024FF6EF739A4206
:1057B00079D883B223F00F03C0F342001843236863
:1057C000D860002072E0012070E0FDF7CFFF0028D4
:1057D000DDD100206AE0FDF7DBFFF8E703A8FEF764
:1057E0001DFE0498F3E76846FEF732FF0198EEE7E6
:1057F000364B1B6813F0200F08D0344B1B68C3F3E3
:10580000C1033348D840E2E73248C0E73048BEE73A
:10581000402B17D14FF40040626A2A4B33F8123004
:10582000B0FBF3F0636800EB5300B0FBF3F0A0F1C2
:1058300010024FF6EF739A4242D8236880B2D860C4
:10584000002033E0012031E0FDF790FF0028E3D194
:1058500000202BE0FDF79CFFF8E703A8FEF7DEFD34
:105860000498F3E76846FEF7F3FE0198EEE7174B5E
:105870001B6813F0200F08D0144B1B68C3F3C1033F
:105880001348D840E2E71348C6E71148C4E70120AF
:105890000CE001200AE0012008E0012006E00120E0
:1058A00004E0012002E0012000E001200123A4F82F
:1058B0006A30A4F8683000236367A36706B070BD40
:1058C0000120F3E7B07F0008FFFC0F0000440258FE
:1058D0000090D00300093D00836A13F0010F06D049
:1058E0000268536823F40033C16A0B435360836A30
:1058F00013F0020F06D00268536823F48033016B63
:105900000B435360836A13F0040F06D00268536898
:1059100023F48023416B0B435360836A13F0080F19
:1059200006D00268536823F40043816B0B43536035
:10593000836A13F0100F06D00268936823F4805333
:10594000C16B0B439360836A13F0200F06D002688B
:10595000936823F40053016C0B439360836A13F044
:10596000400F0AD00268536823F48013416C0B4344
:105970005360436CB3F5801F0BD0836A13F0800F24
:1059800006D00268536823F40023C16C0B435360B4
:1059900070470268536823F4C003816C0B43536063
:1059A000EBE72DE9F84305460F4616469946DDF824
:1059B00020802C68E46937EA04030CBF4FF0010C27
:1059C0004FF0000CB44532D1B8F1FF3FF1D0FCF7F5
:1059D00083FCA0EB090040452CD8B8F1000F2BD078
:1059E0002B681A6812F0040FE3D0DA6912F0080F7E
:1059F00011D1DA6912F4006FDBD04FF400621A6241
:105A00002846FEF73FFF2023C5F89030002385F895
:105A1000843003200CE008241C622846FEF732FF85
:105A2000C5F89040002385F88430012000E0002074
:105A3000BDE8F8830320FBE70320F9E72DE9F041F7
:105A400082B01E46D0F88830202B5BD104460D462C
:105A50009046002A18BF002901D1012053E00023FD
:105A6000C0F890302123C0F88830FCF735FC074699
:105A7000A4F85480A4F85680A368B3F5805F02D0E0
:105A80004FF0000816E0236943B34FF0000811E01F
:105A90002023C4F88830032035E038F8023B226820
:105AA000C3F308039362B4F8562092B2013A92B25B
:105AB000A4F85620B4F856309BB293B100963B46FA
:105AC000002280212046FFF76CFF0028E0D1002D46
:105AD000E3D015F8012B23689A62E4E7A846002575
:105AE000E8E700963B46002240212046FFF759FF99
